{
  "contractName": "Market",
  "abi": [
    {
      "constant": true,
      "inputs": [
        {
          "name": "",
          "type": "address"
        }
      ],
      "name": "balances",
      "outputs": [
        {
          "name": "",
          "type": "uint256"
        }
      ],
      "payable": false,
      "stateMutability": "view",
      "type": "function"
    },
    {
      "constant": true,
      "inputs": [
        {
          "name": "",
          "type": "uint256"
        }
      ],
      "name": "itemOffers",
      "outputs": [
        {
          "name": "seller",
          "type": "address"
        },
        {
          "name": "itemState",
          "type": "uint8"
        }
      ],
      "payable": false,
      "stateMutability": "view",
      "type": "function"
    },
    {
      "constant": true,
      "inputs": [
        {
          "name": "",
          "type": "uint256"
        }
      ],
      "name": "items",
      "outputs": [
        {
          "name": "seller",
          "type": "address"
        },
        {
          "name": "name",
          "type": "string"
        },
        {
          "name": "image",
          "type": "string"
        },
        {
          "name": "price",
          "type": "uint256"
        },
        {
          "name": "nickname",
          "type": "string"
        },
        {
          "name": "buyer",
          "type": "address"
        }
      ],
      "payable": false,
      "stateMutability": "view",
      "type": "function"
    },
    {
      "inputs": [
        {
          "name": "accountA",
          "type": "address"
        },
        {
          "name": "accountB",
          "type": "address"
        },
        {
          "name": "accountC",
          "type": "address"
        }
      ],
      "payable": false,
      "stateMutability": "nonpayable",
      "type": "constructor"
    },
    {
      "anonymous": false,
      "inputs": [
        {
          "indexed": false,
          "name": "itemId",
          "type": "uint256"
        },
        {
          "indexed": false,
          "name": "seller",
          "type": "address"
        }
      ],
      "name": "ItemSold",
      "type": "event"
    },
    {
      "anonymous": false,
      "inputs": [
        {
          "indexed": false,
          "name": "itemId",
          "type": "uint256"
        }
      ],
      "name": "ItemStateSold",
      "type": "event"
    },
    {
      "constant": true,
      "inputs": [
        {
          "name": "node",
          "type": "address"
        }
      ],
      "name": "getBalance",
      "outputs": [
        {
          "name": "",
          "type": "uint256"
        }
      ],
      "payable": false,
      "stateMutability": "view",
      "type": "function"
    },
    {
      "constant": false,
      "inputs": [
        {
          "name": "_seller",
          "type": "address"
        },
        {
          "name": "_name",
          "type": "string"
        },
        {
          "name": "_image",
          "type": "string"
        },
        {
          "name": "_price",
          "type": "uint256"
        }
      ],
      "name": "createItem",
      "outputs": [],
      "payable": false,
      "stateMutability": "nonpayable",
      "type": "function"
    },
    {
      "constant": false,
      "inputs": [
        {
          "name": "id",
          "type": "uint256"
        }
      ],
      "name": "buyItem",
      "outputs": [
        {
          "name": "",
          "type": "uint256"
        }
      ],
      "payable": false,
      "stateMutability": "nonpayable",
      "type": "function"
    },
    {
      "constant": false,
      "inputs": [
        {
          "name": "id",
          "type": "uint256"
        }
      ],
      "name": "markItemSold",
      "outputs": [
        {
          "name": "",
          "type": "uint256"
        }
      ],
      "payable": false,
      "stateMutability": "nonpayable",
      "type": "function"
    },
    {
      "constant": false,
      "inputs": [
        {
          "name": "id",
          "type": "uint256"
        },
        {
          "name": "newNickname",
          "type": "string"
        }
      ],
      "name": "setNickname",
      "outputs": [
        {
          "name": "",
          "type": "uint256"
        }
      ],
      "payable": false,
      "stateMutability": "nonpayable",
      "type": "function"
    },
    {
      "constant": true,
      "inputs": [],
      "name": "getSize",
      "outputs": [
        {
          "name": "",
          "type": "uint256"
        }
      ],
      "payable": false,
      "stateMutability": "view",
      "type": "function"
    },
    {
      "constant": true,
      "inputs": [
        {
          "name": "id",
          "type": "uint256"
        }
      ],
      "name": "getItem",
      "outputs": [
        {
          "name": "",
          "type": "uint256"
        },
        {
          "name": "",
          "type": "address"
        },
        {
          "name": "",
          "type": "string"
        },
        {
          "name": "",
          "type": "string"
        },
        {
          "name": "",
          "type": "uint256"
        },
        {
          "name": "",
          "type": "string"
        },
        {
          "name": "",
          "type": "address"
        }
      ],
      "payable": false,
      "stateMutability": "view",
      "type": "function"
    },
    {
      "constant": true,
      "inputs": [
        {
          "name": "id",
          "type": "uint256"
        }
      ],
      "name": "getItemState",
      "outputs": [
        {
          "name": "",
          "type": "uint256"
        },
        {
          "name": "",
          "type": "uint256"
        }
      ],
      "payable": false,
      "stateMutability": "view",
      "type": "function"
    }
  ],
  "bytecode": "0x608060405234801561001057600080fd5b50604051606080611b43833981018060405281019080805190602001909291908051906020019092919080519060200190929190505050678ac7230489e80000600160008573ffffffffffffffffffffffffffffffffffffffff1673ffffffffffffffffffffffffffffffffffffffff16815260200190815260200160002081905550678ac7230489e80000600160008473ffffffffffffffffffffffffffffffffffffffff1673ffffffffffffffffffffffffffffffffffffffff16815260200190815260200160002081905550678ac7230489e80000600160008373ffffffffffffffffffffffffffffffffffffffff1673ffffffffffffffffffffffffffffffffffffffff16815260200190815260200160002081905550505050611a068061013d6000396000f3006080604052600436106100af576000357c0100000000000000000000000000000000000000000000000000000000900463ffffffff16806327e235e3146100b45780633129e7731461010b578063367a3283146102fd57806345bdac101461033e57806381c6976d14610386578063a8c4c18e1461045f578063bfb231d2146104e1578063d92af1b7146106cc578063de8fa43114610753578063e7fb74c71461077e578063f8b2cb4f146107bf575b600080fd5b3480156100c057600080fd5b506100f5600480360381019080803573ffffffffffffffffffffffffffffffffffffffff169060200190929190505050610816565b6040518082815260200191505060405180910390f35b34801561011757600080fd5b506101366004803603810190808035906020019092919050505061082e565b604051808881526020018773ffffffffffffffffffffffffffffffffffffffff1673ffffffffffffffffffffffffffffffffffffffff1681526020018060200180602001868152602001806020018573ffffffffffffffffffffffffffffffffffffffff1673ffffffffffffffffffffffffffffffffffffffff168152602001848103845289818151815260200191508051906020019080838360005b838110156101ee5780820151818401526020810190506101d3565b50505050905090810190601f16801561021b5780820380516001836020036101000a031916815260200191505b50848103835288818151815260200191508051906020019080838360005b83811015610254578082015181840152602081019050610239565b50505050905090810190601f1680156102815780820380516001836020036101000a031916815260200191505b50848103825286818151815260200191508051906020019080838360005b838110156102ba57808201518184015260208101905061029f565b50505050905090810190601f1680156102e75780820380516001836020036101000a031916815260200191505b509a505050505050505050505060405180910390f35b34801561030957600080fd5b5061032860048036038101908080359060200190929190505050610b4b565b6040518082815260200191505060405180910390f35b34801561034a57600080fd5b5061036960048036038101908080359060200190929190505050610ca6565b604051808381526020018281526020019250505060405180910390f35b34801561039257600080fd5b5061045d600480360381019080803573ffffffffffffffffffffffffffffffffffffffff169060200190929190803590602001908201803590602001908080601f0160208091040260200160405190810160405280939291908181526020018383808284378201915050505050509192919290803590602001908201803590602001908080601f016020809104026020016040519081016040528093929190818152602001838380828437820191505050505050919291929080359060200190929190505050610ce8565b005b34801561046b57600080fd5b5061048a60048036038101908080359060200190929190505050610f57565b604051808373ffffffffffffffffffffffffffffffffffffffff1673ffffffffffffffffffffffffffffffffffffffff1681526020018260018111156104cc57fe5b60ff1681526020019250505060405180910390f35b3480156104ed57600080fd5b5061050c60048036038101908080359060200190929190505050610fb3565b604051808773ffffffffffffffffffffffffffffffffffffffff1673ffffffffffffffffffffffffffffffffffffffff1681526020018060200180602001868152602001806020018573ffffffffffffffffffffffffffffffffffffffff1673ffffffffffffffffffffffffffffffffffffffff168152602001848103845289818151815260200191508051906020019080838360005b838110156105be5780820151818401526020810190506105a3565b50505050905090810190601f1680156105eb5780820380516001836020036101000a031916815260200191505b50848103835288818151815260200191508051906020019080838360005b83811015610624578082015181840152602081019050610609565b50505050905090810190601f1680156106515780820380516001836020036101000a031916815260200191505b50848103825286818151815260200191508051906020019080838360005b8381101561068a57808201518184015260208101905061066f565b50505050905090810190601f1680156106b75780820380516001836020036101000a031916815260200191505b50995050505050505050505060405180910390f35b3480156106d857600080fd5b5061073d60048036038101908080359060200190929190803590602001908201803590602001908080601f0160208091040260200160405190810160405280939291908181526020018383808284378201915050505050509192919290505050611206565b6040518082815260200191505060405180910390f35b34801561075f57600080fd5b506107686112d2565b6040518082815260200191505060405180910390f35b34801561078a57600080fd5b506107a9600480360381019080803590602001909291905050506112de565b6040518082815260200191505060405180910390f35b3480156107cb57600080fd5b50610800600480360381019080803573ffffffffffffffffffffffffffffffffffffffff169060200190929190505050611809565b6040518082815260200191505060405180910390f35b60016020528060005260406000206000915090505481565b600080606080600060606000610842611852565b60008981548110151561085157fe5b906000526020600020906006020160c060405190810160405290816000820160009054906101000a900473ffffffffffffffffffffffffffffffffffffffff1673ffffffffffffffffffffffffffffffffffffffff1673ffffffffffffffffffffffffffffffffffffffff168152602001600182018054600181600116156101000203166002900480601f01602080910402602001604051908101604052809291908181526020018280546001816001161561010002031660029004801561095a5780601f1061092f5761010080835404028352916020019161095a565b820191906000526020600020905b81548152906001019060200180831161093d57829003601f168201915b50505050508152602001600282018054600181600116156101000203166002900480601f0160208091040260200160405190810160405280929190818152602001828054600181600116156101000203166002900480156109fc5780601f106109d1576101008083540402835291602001916109fc565b820191906000526020600020905b8154815290600101906020018083116109df57829003601f168201915b5050505050815260200160038201548152602001600482018054600181600116156101000203166002900480601f016020809104026020016040519081016040528092919081815260200182805460018160011615610100020316600290048015610aa85780601f10610a7d57610100808354040283529160200191610aa8565b820191906000526020600020905b815481529060010190602001808311610a8b57829003601f168201915b505050505081526020016005820160009054906101000a900473ffffffffffffffffffffffffffffffffffffffff1673ffffffffffffffffffffffffffffffffffffffff1673ffffffffffffffffffffffffffffffffffffffff1681525050905088816000015182602001518360400151846060015185608001518660a00151849450839350819150975097509750975097509750975050919395979092949650565b60003373ffffffffffffffffffffffffffffffffffffffff16600283815481101515610b7357fe5b9060005260206000200160000160009054906101000a900473ffffffffffffffffffffffffffffffffffffffff1673ffffffffffffffffffffffffffffffffffffffff16141515610c2c576040517f08c379a000000000000000000000000000000000000000000000000000000000815260040180806020018281038252601d8152602001807f4f6e6c792073656c6c65722063616e2066696e616c697a65206974656d00000081525060200191505060405180910390fd5b6001600283815481101515610c3d57fe5b9060005260206000200160000160146101000a81548160ff02191690836001811115610c6557fe5b02179055507f9ea6554082e3b912702dce41de9bce9f7efbb3d91cc911a3d921f6a9048b853c826040518082815260200191505060405180910390a1919050565b60008082600284815481101515610cb957fe5b9060005260206000200160000160149054906101000a900460ff166001811115610cdf57fe5b91509150915091565b610cf0611852565b60c0604051908101604052808673ffffffffffffffffffffffffffffffffffffffff16815260200185815260200184815260200183815260200160206040519081016040528060008152508152602001600073ffffffffffffffffffffffffffffffffffffffff1681525090506000819080600181540180825580915050906001820390600052602060002090600602016000909192909190915060008201518160000160006101000a81548173ffffffffffffffffffffffffffffffffffffffff021916908373ffffffffffffffffffffffffffffffffffffffff1602179055506020820151816001019080519060200190610dee9291906118b5565b506040820151816002019080519060200190610e0b9291906118b5565b50606082015181600301556080820151816004019080519060200190610e329291906118b5565b5060a08201518160050160006101000a81548173ffffffffffffffffffffffffffffffffffffffff021916908373ffffffffffffffffffffffffffffffffffffffff160217905550505050600260408051908101604052808773ffffffffffffffffffffffffffffffffffffffff16815260200160006001811115610eb357fe5b81525090806001815401808255809150509060018203906000526020600020016000909192909190915060008201518160000160006101000a81548173ffffffffffffffffffffffffffffffffffffffff021916908373ffffffffffffffffffffffffffffffffffffffff16021790555060208201518160000160146101000a81548160ff02191690836001811115610f4857fe5b02179055505050505050505050565b600281815481101515610f6657fe5b906000526020600020016000915090508060000160009054906101000a900473ffffffffffffffffffffffffffffffffffffffff16908060000160149054906101000a900460ff16905082565b600081815481101515610fc257fe5b90600052602060002090600602016000915090508060000160009054906101000a900473ffffffffffffffffffffffffffffffffffffffff1690806001018054600181600116156101000203166002900480601f0160208091040260200160405190810160405280929190818152602001828054600181600116156101000203166002900480156110945780601f1061106957610100808354040283529160200191611094565b820191906000526020600020905b81548152906001019060200180831161107757829003601f168201915b505050505090806002018054600181600116156101000203166002900480601f0160208091040260200160405190810160405280929190818152602001828054600181600116156101000203166002900480156111325780601f1061110757610100808354040283529160200191611132565b820191906000526020600020905b81548152906001019060200180831161111557829003601f168201915b505050505090806003015490806004018054600181600116156101000203166002900480601f0160208091040260200160405190810160405280929190818152602001828054600181600116156101000203166002900480156111d65780601f106111ab576101008083540402835291602001916111d6565b820191906000526020600020905b8154815290600101906020018083116111b957829003601f168201915b5050505050908060050160009054906101000a900473ffffffffffffffffffffffffffffffffffffffff16905086565b6000826000811015801561121f57506000805490508111155b1515611293576040517f08c379a000000000000000000000000000000000000000000000000000000000815260040180806020018281038252600f8152602001807f496e76616c6964206974656d206964000000000000000000000000000000000081525060200191505060405180910390fd5b826000858154811015156112a357fe5b906000526020600020906006020160040190805190602001906112c7929190611935565b508391505092915050565b60008080549050905090565b600081600081101580156112f757506000805490508111155b151561136b576040517f08c379a000000000000000000000000000000000000000000000000000000000815260040180806020018281038252600f8152602001807f496e76616c6964206974656d206964000000000000000000000000000000000081525060200191505060405180910390fd5b60008381548110151561137a57fe5b906000526020600020906006020160000160009054906101000a900473ffffffffffffffffffffffffffffffffffffffff1673ffffffffffffffffffffffffffffffffffffffff163373ffffffffffffffffffffffffffffffffffffffff161415151561144f576040517f08c379a000000000000000000000000000000000000000000000000000000000815260040180806020018281038252601a8152602001807f53656c6c65722063616e2774207075726368617365206974656d00000000000081525060200191505060405180910390fd5b60008381548110151561145e57fe5b906000526020600020906006020160030154600160003373ffffffffffffffffffffffffffffffffffffffff1673ffffffffffffffffffffffffffffffffffffffff1681526020019081526020016000205410151515611526576040517f08c379a00000000000000000000000000000000000000000000000000000000081526004018080602001828103825260128152602001807f496e73756666696369656e742066756e6473000000000000000000000000000081525060200191505060405180910390fd5b6000600181111561153357fe5b60028481548110151561154257fe5b9060005260206000200160000160149054906101000a900460ff16600181111561156857fe5b1415156115dd576040517f08c379a00000000000000000000000000000000000000000000000000000000081526004018080602001828103825260148152602001807f4974656d206973206e6f7420666f722073616c6500000000000000000000000081525060200191505060405180910390fd5b6000838154811015156115ec57fe5b906000526020600020906006020160030154600160003373ffffffffffffffffffffffffffffffffffffffff1673ffffffffffffffffffffffffffffffffffffffff1681526020019081526020016000206000828254039250508190555060008381548110151561165957fe5b90600052602060002090600602016003015460016000808681548110151561167d57fe5b906000526020600020906006020160000160009054906101000a900473ffffffffffffffffffffffffffffffffffffffff1673ffffffffffffffffffffffffffffffffffffffff1673ffffffffffffffffffffffffffffffffffffffff168152602001908152602001600020600082825401925050819055503360008481548110151561170657fe5b906000526020600020906006020160050160006101000a81548173ffffffffffffffffffffffffffffffffffffffff021916908373ffffffffffffffffffffffffffffffffffffffff1602179055507f7de4035ced290be6d7724645d43bad448b5d8cc76743ff4da172c2d8e1caa0f58360008581548110151561178657fe5b906000526020600020906006020160000160009054906101000a900473ffffffffffffffffffffffffffffffffffffffff16604051808381526020018273ffffffffffffffffffffffffffffffffffffffff1673ffffffffffffffffffffffffffffffffffffffff1681526020019250505060405180910390a182915050919050565b6000600160008373ffffffffffffffffffffffffffffffffffffffff1673ffffffffffffffffffffffffffffffffffffffff168152602001908152602001600020549050919050565b60c060405190810160405280600073ffffffffffffffffffffffffffffffffffffffff16815260200160608152602001606081526020016000815260200160608152602001600073ffffffffffffffffffffffffffffffffffffffff1681525090565b828054600181600116156101000203166002900490600052602060002090601f016020900481019282601f106118f657805160ff1916838001178555611924565b82800160010185558215611924579182015b82811115611923578251825591602001919060010190611908565b5b50905061193191906119b5565b5090565b828054600181600116156101000203166002900490600052602060002090601f016020900481019282601f1061197657805160ff19168380011785556119a4565b828001600101855582156119a4579182015b828111156119a3578251825591602001919060010190611988565b5b5090506119b191906119b5565b5090565b6119d791905b808211156119d35760008160009055506001016119bb565b5090565b905600a165627a7a7230582041e5921e745ff8fa7d138616fb909f1e3e9bb34353c2347412ffd2dfaf675df00029",
  "source": "pragma solidity ^0.4.17;\n\ncontract Market {\n  Item[] public items;\n  mapping(address => uint256) public balances;\n  enum ItemState {Available, Sold}\n\n  ItemOffer[] public itemOffers;\n\n  struct ItemOffer {\n    address seller;\n    ItemState itemState;\n  }\n\n  struct Item {\n    address seller;\n    string name;\n    string image;\n    uint256 price;\n    string nickname;\n    address buyer;\n  }\n\n  event ItemSold(uint itemId, address seller);\n  event ItemStateSold(uint itemId);\n\n  modifier validItemId(uint id) {\n    require(id >= 0 && id <= items.length, \"Invalid item id\");\n    _;\n  }\n\n\n  constructor(address accountA, address accountB, address accountC) public { \n    balances[accountA] = 10 ether;\n    balances[accountB] = 10 ether;\n    balances[accountC] = 10 ether;\n  }\n\n  function getBalance(address node) public view returns (uint256){\n    return balances[node];\n  }\n\n  function createItem(address _seller, string _name, string _image, uint256 _price) public {\n    Item memory _item = Item(_seller, _name, _image, _price, \"\", address(0));\n    items.push(_item);\n    itemOffers.push(ItemOffer(_seller, ItemState.Available));\n  }\n\n  function buyItem(uint id) public validItemId(id) returns (uint) {\n    require(msg.sender != items[id].seller, \"Seller can't purchase item\");\n    require(balances[msg.sender] >= items[id].price, \"Insufficient funds\");\n    require(itemOffers[id].itemState == ItemState.Available, \"Item is not for sale\");\n\n    balances[msg.sender] -= items[id].price;\n    balances[items[id].seller] += items[id].price;\n    items[id].buyer = msg.sender;\n\n    emit ItemSold(id, items[id].seller);\n\n    return id;\n  }\n\n  function markItemSold(uint id) public returns (uint) {\n    require(itemOffers[id].seller == msg.sender, \"Only seller can finalize item\");\n    \n    itemOffers[id].itemState = ItemState.Sold;\n\n    emit ItemStateSold(id);\n  }\n\n  function setNickname(uint id, string newNickname) public validItemId(id) returns (uint) {\n    items[id].nickname = newNickname;\n\n    return id;\n  }\n\n  function getSize() public view returns (uint) {\n    return items.length;\n  }\n\n  function getItem(uint id) public view returns (uint, address, string, string, uint256, string, address) {\n    Item memory item = items[id];\n    return (id, item.seller, item.name, item.image, item.price, item.nickname, item.buyer);\n  }\n\n  function getItemState(uint id) public view returns (uint, uint) {\n    return (id, uint(itemOffers[id].itemState));\n  }\n}",
  "sourcePath": "/home/lyotam/Downloads/TechMarketplace/contracts/Market.sol",
  "compiler": {
    "name": "solc",
    "version": "0.4.25+commit.59dbf8f1.Emscripten.clang"
  },
  "schemaVersion": "2.0.2",
  "updatedAt": "2019-03-03T08:54:09.965Z"
}